:020000020000FC
:10000000E5E2F0E00994189518951895189518955B
:100010001895189518951895189518951895189578
:100020001895189518951895189518951895189568
:100030001895189518951895189518951895189558
:1000400018951895189518951895E0E8F0E090E047
:100050009193E1E8F0E09CE09193E9E8F0E092E030
:100060009193E8E8F0E090E79193F894A89598E1EF
:10007000E0E6F0E0908399E290837894EEE5F0E09A
:1000800098E09193EDE5F0E09FEF9193A0E0B9E067
:1000900000E080E098E00E930197E9F7E4E2F0E0F9
:1000A00090E09193E5E2F0E091E19193E7E2F0E0F6
:1000B00090E09193E8E2F0E090E09193EAE2F0E0E2
:1000C00094E19193EBE2F0E090E09193B19BFECF4D
:1000D000B19AA895E0E0F1E0908191609083189941
:1000E00005C0E0E0F1E090819E7F9083E0E0F1E0E8
:1000F000908190FBEBE2F0E0908192F99083E0E058
:10010000F1E09081916090831C9905C0E0E0F1E0FE
:1001100090819E7F9083E0E0F1E0908190FBEBE2A4
:10012000F0E0908194F99083E6E6F0E00994FFCF47
:00000001FF
